{
  "abi": [
    {
      "inputs": [],
      "stateMutability": "nonpayable",
      "type": "constructor"
    },
    {
      "anonymous": false,
      "inputs": [
        {
          "indexed": true,
          "internalType": "address",
          "name": "previousOwner",
          "type": "address"
        },
        {
          "indexed": true,
          "internalType": "address",
          "name": "newOwner",
          "type": "address"
        }
      ],
      "name": "OwnershipTransferred",
      "type": "event"
    },
    {
      "anonymous": false,
      "inputs": [
        {
          "indexed": false,
          "internalType": "address",
          "name": "withdrawer",
          "type": "address"
        },
        {
          "indexed": false,
          "internalType": "uint256",
          "name": "amount",
          "type": "uint256"
        }
      ],
      "name": "Withdraw",
      "type": "event"
    },
    {
      "inputs": [
        {
          "internalType": "address",
          "name": "",
          "type": "address"
        },
        {
          "internalType": "uint256",
          "name": "",
          "type": "uint256"
        }
      ],
      "name": "depositsByTokenAddress",
      "outputs": [
        {
          "internalType": "uint256",
          "name": "",
          "type": "uint256"
        }
      ],
      "stateMutability": "view",
      "type": "function"
    },
    {
      "inputs": [
        {
          "internalType": "address",
          "name": "",
          "type": "address"
        },
        {
          "internalType": "uint256",
          "name": "",
          "type": "uint256"
        }
      ],
      "name": "depositsByWithdrawers",
      "outputs": [
        {
          "internalType": "uint256",
          "name": "",
          "type": "uint256"
        }
      ],
      "stateMutability": "view",
      "type": "function"
    },
    {
      "inputs": [],
      "name": "depositsCount",
      "outputs": [
        {
          "internalType": "uint256",
          "name": "",
          "type": "uint256"
        }
      ],
      "stateMutability": "view",
      "type": "function"
    },
    {
      "inputs": [
        {
          "internalType": "address",
          "name": "_id",
          "type": "address"
        }
      ],
      "name": "getDepositsByTokenAddress",
      "outputs": [
        {
          "internalType": "uint256[]",
          "name": "",
          "type": "uint256[]"
        }
      ],
      "stateMutability": "view",
      "type": "function"
    },
    {
      "inputs": [
        {
          "internalType": "address",
          "name": "_token",
          "type": "address"
        },
        {
          "internalType": "address",
          "name": "_withdrawer",
          "type": "address"
        }
      ],
      "name": "getDepositsByWithdrawer",
      "outputs": [
        {
          "internalType": "uint256",
          "name": "",
          "type": "uint256"
        }
      ],
      "stateMutability": "view",
      "type": "function"
    },
    {
      "inputs": [
        {
          "internalType": "address",
          "name": "_token",
          "type": "address"
        }
      ],
      "name": "getTokenTotalLockedBalance",
      "outputs": [
        {
          "internalType": "uint256",
          "name": "",
          "type": "uint256"
        }
      ],
      "stateMutability": "view",
      "type": "function"
    },
    {
      "inputs": [
        {
          "internalType": "uint256",
          "name": "_id",
          "type": "uint256"
        }
      ],
      "name": "getVaultById",
      "outputs": [
        {
          "components": [
            {
              "internalType": "contract IERC20",
              "name": "token",
              "type": "address"
            },
            {
              "internalType": "address",
              "name": "withdrawer",
              "type": "address"
            },
            {
              "internalType": "uint256",
              "name": "amount",
              "type": "uint256"
            },
            {
              "internalType": "uint256",
              "name": "unlockTimestamp",
              "type": "uint256"
            },
            {
              "internalType": "bool",
              "name": "withdrawn",
              "type": "bool"
            },
            {
              "internalType": "bool",
              "name": "deposited",
              "type": "bool"
            }
          ],
          "internalType": "struct TestVault.Items",
          "name": "",
          "type": "tuple"
        }
      ],
      "stateMutability": "view",
      "type": "function"
    },
    {
      "inputs": [
        {
          "internalType": "address",
          "name": "_withdrawer",
          "type": "address"
        }
      ],
      "name": "getVaultsByWithdrawer",
      "outputs": [
        {
          "internalType": "uint256[]",
          "name": "",
          "type": "uint256[]"
        }
      ],
      "stateMutability": "view",
      "type": "function"
    },
    {
      "inputs": [],
      "name": "helpiMarketingAddress",
      "outputs": [
        {
          "internalType": "address",
          "name": "",
          "type": "address"
        }
      ],
      "stateMutability": "view",
      "type": "function"
    },
    {
      "inputs": [
        {
          "internalType": "contract IERC20",
          "name": "_token",
          "type": "address"
        },
        {
          "internalType": "address",
          "name": "_withdrawer",
          "type": "address"
        },
        {
          "internalType": "uint256",
          "name": "_amount",
          "type": "uint256"
        },
        {
          "internalType": "uint256",
          "name": "_unlockTimestamp",
          "type": "uint256"
        }
      ],
      "name": "lockTokens",
      "outputs": [
        {
          "internalType": "uint256",
          "name": "_id",
          "type": "uint256"
        }
      ],
      "stateMutability": "nonpayable",
      "type": "function"
    },
    {
      "inputs": [
        {
          "internalType": "uint256",
          "name": "",
          "type": "uint256"
        }
      ],
      "name": "lockedToken",
      "outputs": [
        {
          "internalType": "contract IERC20",
          "name": "token",
          "type": "address"
        },
        {
          "internalType": "address",
          "name": "withdrawer",
          "type": "address"
        },
        {
          "internalType": "uint256",
          "name": "amount",
          "type": "uint256"
        },
        {
          "internalType": "uint256",
          "name": "unlockTimestamp",
          "type": "uint256"
        },
        {
          "internalType": "bool",
          "name": "withdrawn",
          "type": "bool"
        },
        {
          "internalType": "bool",
          "name": "deposited",
          "type": "bool"
        }
      ],
      "stateMutability": "view",
      "type": "function"
    },
    {
      "inputs": [],
      "name": "owner",
      "outputs": [
        {
          "internalType": "address",
          "name": "",
          "type": "address"
        }
      ],
      "stateMutability": "view",
      "type": "function"
    },
    {
      "inputs": [],
      "name": "renounceOwnership",
      "outputs": [],
      "stateMutability": "nonpayable",
      "type": "function"
    },
    {
      "inputs": [
        {
          "internalType": "address",
          "name": "newOwner",
          "type": "address"
        }
      ],
      "name": "transferOwnership",
      "outputs": [],
      "stateMutability": "nonpayable",
      "type": "function"
    },
    {
      "inputs": [
        {
          "internalType": "address",
          "name": "",
          "type": "address"
        },
        {
          "internalType": "address",
          "name": "",
          "type": "address"
        }
      ],
      "name": "walletTokenBalance",
      "outputs": [
        {
          "internalType": "uint256",
          "name": "",
          "type": "uint256"
        }
      ],
      "stateMutability": "view",
      "type": "function"
    },
    {
      "inputs": [
        {
          "internalType": "uint256",
          "name": "_id",
          "type": "uint256"
        }
      ],
      "name": "withdrawTokens",
      "outputs": [],
      "stateMutability": "nonpayable",
      "type": "function"
    }
  ],
  "bytecode": {
    "object": "0x6080806040523461005b5760008054336001600160a01b0319821681178355916001600160a01b03909116907f8be0079c531659141344cd1fd0a4f28419497f9722a3daafe3b4186f6b6457e09080a361138990816100618239f35b600080fdfe6080604081815260048036101561001557600080fd5b600092833560e01c908163315a095d14610b93575080633fd97b9b14610b305780634506e93514610b115780636a80033014610251578063715018a614610a9357806371546b8114610a1257806374e7ff9e146109dd5780637d533c1e1461057057806386f65a22146104e15780638da5cb5b146104ae57806394708776146103cc578063aa9ce2e614610369578063b78a1532146102ab578063b9e7df1c14610251578063bb941cff146101d45763f2fde38b146100d357600080fd5b346101d05760206003193601126101d0576100ec610ed9565b906100f5610fa6565b73ffffffffffffffffffffffffffffffffffffffff8092169283156101675750508254827fffffffffffffffffffffffff00000000000000000000000000000000000000008216178455167f8be0079c531659141344cd1fd0a4f28419497f9722a3daafe3b4186f6b6457e08380a380f35b906020608492519162461bcd60e51b8352820152602660248201527f4f776e61626c653a206e6577206f776e657220697320746865207a65726f206160448201527f64647265737300000000000000000000000000000000000000000000000000006064820152fd5b8280fd5b5090346101d05760206003193601126101d0578060ff9160c09484358152846020522073ffffffffffffffffffffffffffffffffffffffff938482541694600183015416926002830154916003840154930154938151968752602087015285015260608401528181161515608084015260081c16151560a0820152f35b5050346102a757806003193601126102a7578060209261026f610ed9565b610277610f01565b73ffffffffffffffffffffffffffffffffffffffff91821683526005865283832091168252845220549051908152f35b5080fd5b509190346102a757602092836003193601126101d0578373ffffffffffffffffffffffffffffffffffffffff6102df610ed9565b169160248451809481937f70a0823100000000000000000000000000000000000000000000000000000000835230908301525afa92831561035e578093610329575b505051908152f35b909192508382813d8311610357575b6103428183611056565b81010312610354575051903880610321565b80fd5b503d610338565b8251903d90823e3d90fd5b5050346102a757806003193601126102a757610383610ed9565b73ffffffffffffffffffffffffffffffffffffffff16825260036020528082208054602435939084101561035457506020926103be91610f24565b90549060031b1c9051908152f35b5090346101d05760206003193601126101d057808360c09460a083516103f18161100b565b828152826020820152828582015282606082015282608082015201528335815283602052208151906104228261100b565b73ffffffffffffffffffffffffffffffffffffffff9283825416948584528460018401541694602085019586526002840154918386019283526003850154946060870195865201549560ff60a06080880197828a1615158952019760081c16151587528351978852511660208701525190850152516060840152511515608083015251151560a0820152f35b5050346102a757816003193601126102a75773ffffffffffffffffffffffffffffffffffffffff60209254169051908152f35b5050346102a757602090816003193601126101d05773ffffffffffffffffffffffffffffffffffffffff610513610ed9565b168352600282528083209281518093808654928381520195835280832092905b82821061055957610555868661054b828b0383611056565b5191829182610f6b565b0390f35b835487529586019560019384019390910190610533565b509190346102a75760806003193601126102a75782359173ffffffffffffffffffffffffffffffffffffffff90818416918285036102a7576105b0610f01565b926044968735966064988935916101f48a111561099c576402540be40083101561093557428311156108ce5788519a7fdd62ed3e000000000000000000000000000000000000000000000000000000008c5233858d01526024928c843091015260209c8d8183818b5afa9081156108c457908d918b9161088f575b501061085057908c92917f23b872dd000000000000000000000000000000000000000000000000000000008c5194850152338585015230908401528b81840152825260a0820182811067ffffffffffffffff821117610825578a5261069091906110f1565b83865260058a528786203387528a52878620548981018091116107fa5784875260058b528887203388528b5288872055600154907fffffffffffffffffffffffffffffffffffffffffffffffffffffffffffffffff82146107d05750916107ca96959391600189969401998a9788600155888752838d52878720957fffffffffffffffffffffffff000000000000000000000000000000000000000096868882541617905560018989200191168096825416179055600287872001556003868620015580858520017fffffffffffffffffffffffffffffffffffffffffffffffffffffffffffffff008154169055848420016101007fffffffffffffffffffffffffffffffffffffffffffffffffffffffffffff00ff8254161790558252600288526107be84848420611097565b81526003875220611097565b51908152f35b866011857f4e487b7100000000000000000000000000000000000000000000000000000000835252fd5b50856011847f4e487b7100000000000000000000000000000000000000000000000000000000835252fd5b83896041887f4e487b7100000000000000000000000000000000000000000000000000000000835252fd5b7f417070726f766520746f6b656e73206669727374210000000000000000000000869160158f87908f519562461bcd60e51b8752860152840152820152fd5b8f8193508092503d83116108bd575b6108a88183611056565b810103126108b9578c90513861062b565b8980fd5b503d61089e565b8c513d8c823e3d90fd5b6084847f75747572652100000000000000000000000000000000000000000000000000008d7f556e6c6f636b2074696d657374616d70206973206e6f7420696e2074686520668660208f519562461bcd60e51b875286015260266024860152840152820152fd5b6084847f64732100000000000000000000000000000000000000000000000000000000008d7f556e6c6f636b2074696d657374616d70206973206e6f7420696e207365636f6e8660208f519562461bcd60e51b875286015260236024860152840152820152fd5b8a847f546f6b656e20616d6f756e7420746f6f206c6f772100000000000000000000008460208d519362461bcd60e51b855284015260156024840152820152fd5b5050346102a757816003193601126102a75760209073ffffffffffffffffffffffffffffffffffffffff600654169051908152f35b5050346102a757602090816003193601126101d05773ffffffffffffffffffffffffffffffffffffffff610a44610ed9565b168352600382528083209281518093808654928381520195835280832092905b828210610a7c57610555868661054b828b0383611056565b835487529586019560019384019390910190610a64565b8334610354578060031936011261035457610aac610fa6565b8073ffffffffffffffffffffffffffffffffffffffff81547fffffffffffffffffffffffff000000000000000000000000000000000000000081168355167f8be0079c531659141344cd1fd0a4f28419497f9722a3daafe3b4186f6b6457e08280a380f35b5050346102a757816003193601126102a7576020906001549051908152f35b5050346102a757806003193601126102a757610b4a610ed9565b73ffffffffffffffffffffffffffffffffffffffff1682526002602052808220805460243593908410156103545750602092610b8591610f24565b91905490519160031b1c8152f35b84848492346101d05760209081600319360112610ed557843590818552858352600384862001544210610e95575080845284825273ffffffffffffffffffffffffffffffffffffffff908160018587200154163303610e535780855285835260ff86858720015460081c1615610e115780855285835260ff86858720015416610dcf57808552858352858486200160017fffffffffffffffffffffffffffffffffffffffffffffffffffffffffffffff00825416179055818486205416855260058352838520338652835283852054818652868452600285872001548103908111610da35792610d6f610da0959388847fa9059cbb0000000000000000000000000000000000000000000000000000000097610d9b968b5282865283888c2054168b5260058652878b20338c528652878b2055808a528185527f884edad9ce6fa2440d8a54cc123490eb96d2768479d49ff9c7366125a9424364610d266002898d200154895191829133836020909392919373ffffffffffffffffffffffffffffffffffffffff60408201951681520152565b0390a18952835284882054169360028189200154905195869384015233602484016020909392919373ffffffffffffffffffffffffffffffffffffffff60408201951681520152565b037fffffffffffffffffffffffffffffffffffffffffffffffffffffffffffffffe08101845283611056565b6110f1565b80f35b6024866011897f4e487b7100000000000000000000000000000000000000000000000000000000835252fd5b6064868486519162461bcd60e51b8352820152601d60248201527f546f6b656e732061726520616c72656164792077697468647261776e210000006044820152fd5b6064868486519162461bcd60e51b8352820152601d60248201527f546f6b656e7320617265206e6f7420796574206465706f7369746564210000006044820152fd5b6064868486519162461bcd60e51b8352820152601b60248201527f596f7520617265206e6f742074686520776974686472617765722100000000006044820152fd5b80838762461bcd60e51b60649452820152601860248201527f546f6b656e7320617265207374696c6c206c6f636b65642100000000000000006044820152fd5b8380fd5b6004359073ffffffffffffffffffffffffffffffffffffffff82168203610efc57565b600080fd5b6024359073ffffffffffffffffffffffffffffffffffffffff82168203610efc57565b8054821015610f3c5760005260206000200190600090565b7f4e487b7100000000000000000000000000000000000000000000000000000000600052603260045260246000fd5b6020908160408183019282815285518094520193019160005b828110610f92575050505090565b835185529381019392810192600101610f84565b73ffffffffffffffffffffffffffffffffffffffff600054163303610fc757565b606460405162461bcd60e51b815260206004820152602060248201527f4f776e61626c653a2063616c6c6572206973206e6f7420746865206f776e65726044820152fd5b60c0810190811067ffffffffffffffff82111761102757604052565b7f4e487b7100000000000000000000000000000000000000000000000000000000600052604160045260246000fd5b90601f7fffffffffffffffffffffffffffffffffffffffffffffffffffffffffffffffe0910116810190811067ffffffffffffffff82111761102757604052565b805468010000000000000000811015611027576110b991600182018155610f24565b819291549060031b7fffffffffffffffffffffffffffffffffffffffffffffffffffffffffffffffff811b9283911b16911916179055565b73ffffffffffffffffffffffffffffffffffffffff16906040516040810167ffffffffffffffff9082811082821117611027576040526020938483527f5361666545524332303a206c6f772d6c6576656c2063616c6c206661696c6564858401526000808587829751910182855af1903d15611283573d92831161125657906111b8939291604051926111ab887fffffffffffffffffffffffffffffffffffffffffffffffffffffffffffffffe0601f8401160185611056565b83523d868885013e61128e565b8051806111c6575b50505050565b818491810103126102a7578201519081159182150361035457506111ec578080806111c0565b6084906040519062461bcd60e51b82526004820152602a60248201527f5361666545524332303a204552433230206f7065726174696f6e20646964206e60448201527f6f742073756363656564000000000000000000000000000000000000000000006064820152fd5b6024857f4e487b710000000000000000000000000000000000000000000000000000000081526041600452fd5b906111b89392506060915b919290156112ef57508151156112a2575090565b3b156112ab5790565b606460405162461bcd60e51b815260206004820152601d60248201527f416464726573733a2063616c6c20746f206e6f6e2d636f6e74726163740000006044820152fd5b8251909150156113025750805190602001fd5b6040519062461bcd60e51b825281602080600483015282519283602484015260005b848110611365575050507fffffffffffffffffffffffffffffffffffffffffffffffffffffffffffffffe0601f836000604480968601015201168101030190fd5b81810183015186820160440152859350820161132456fea164736f6c6343000811000a",
    "linkReferences": {}
  },
  "methodIdentifiers": {
    "depositsByTokenAddress(address,uint256)": "3fd97b9b",
    "depositsByWithdrawers(address,uint256)": "aa9ce2e6",
    "depositsCount()": "4506e935",
    "getDepositsByTokenAddress(address)": "86f65a22",
    "getDepositsByWithdrawer(address,address)": "6a800330",
    "getTokenTotalLockedBalance(address)": "b78a1532",
    "getVaultById(uint256)": "94708776",
    "getVaultsByWithdrawer(address)": "71546b81",
    "helpiMarketingAddress()": "74e7ff9e",
    "lockTokens(address,address,uint256,uint256)": "7d533c1e",
    "lockedToken(uint256)": "bb941cff",
    "owner()": "8da5cb5b",
    "renounceOwnership()": "715018a6",
    "transferOwnership(address)": "f2fde38b",
    "walletTokenBalance(address,address)": "b9e7df1c",
    "withdrawTokens(uint256)": "315a095d"
  },
  "id": 10
}